:100000000C9491000C94C2000C94C2000C94C20099
:100010000C94C2000C94C2000C94C2000C94C20058
:100020000C94C2000C94C2000C94C2000C94C20048
:100030000C94C2000C94C2000C94C2000C94F60301
:100040000C94C2000C94C2000C94C2000C94C20028
:100050000C94C2000C94C2000C94C2000C944C038B
:100060000C94C2000C94C0030C9496030C94C20030
:100070000C94C2000C94C2000C94C2000C94C200F8
:100080000C94C2000C94C2000C94C2000C94C200E8
:100090000C94C2000C94C2000C94C2000C941E027A
:1000A0000C94C2000C94C2000C94C2000C94C200C8
:1000B0000C94C2000C94C2000C94C2000C94C200B8
:1000C0000C94C2000C94C2000C94C2000C94C200A8
:1000D0000C94C2000C94C2000C94C2000C94C20098
:1000E0000C94C2000C9420010C940F010C94EE01AE
:1000F0000C94FA000C94CC010C9404010C94430170
:100100000C9419020C94F7000C9451010C947F018B
:100110000C94FD000C942F010C9466040C94F600D2
:10012000660411241FBECFEFD1E2DEBFCDBF00E0D9
:100130000CBF12E0A0E0B2E0E4E2FCE000E00BBFA4
:1001400002C007900D92AA32B107D9F723E0AAE2C4
:10015000B2E001C01D92AF36B207E1F710E0C1E98D
:10016000D0E000E006C021970109802FFE010E9427
:10017000BF04C039D10780E00807A9F70E94A8048E
:100180000C9410060C94000085ED8093BC008091C7
:10019000BC0084FDFCCF10927F02089540915B0269
:1001A000262F30E0240F311D21323105DCF420915F
:1001B0007F022430C9F4FC0180E090E0861758F4F7
:1001C00030915B022191DC01A55CBD4FA30FB11DF5
:1001D0002C930196F3CF80915B02680F60935B02D2
:1001E00080E0089581E0089582E0089508958FEFFA
:1001F0009FEF08958FEF9FEF089580913A0290E06E
:100200009195819591090895CF93DF93CB01EA01F0
:10021000642F0E94CE00CE01DF91CF910895CF933D
:10022000DF931F92CDB7DEB7698361E0CE010196FF
:100230000E94CE0081E090E00F90DF91CF91089571
:10024000FC01538D448D252F30E0842F90E0821BDC
:10025000930B541710F0CF96089501970895FC0161
:10026000918D828D981761F0828DDF01A80FB11DED
:100270005D968C91928D9F5F9F73928F90E0089511
:100280008FEF9FEF0895FC01918D828D981731F0CB
:10029000828DE80FF11D858D90E008958FEF9FEF1F
:1002A0000895FC01918D228D892F90E0805C9F4FF5
:1002B000821B91098F7399270895FC01848DDF01BA
:1002C000A80FB11DA35ABF4F2C91848D90E00196C9
:1002D0008F739927848FA689B7892C93A089B189B8
:1002E0008C91837080648C93938D848D981306C059
:1002F0000288F389E02D80818F7D80830895EF92BD
:10030000FF920F931F93CF93DF93EC0181E0888FCF
:100310009B8D8C8D981305C0E889F989808185FDB6
:1003200026C0F62E0B8D10E00F5F1F4F0F731127A5
:10033000E02E8C8DE8120CC00FB607FCFACFE889CE
:10034000F989808185FFF5CFCE010E945D01F1CF53
:100350008B8DFE01E80FF11DE35AFF4FF0829FB72E
:10036000F8940B8FEA89FB89808180620AC09FB76D
:10037000F894EE89FF896083E889F9898081837028
:10038000806480839FBF81E090E0DF91CF911F91D7
:100390000F91FF90EF900895CF93DF93EC01888D3C
:1003A0008823C9F0EA89FB89808185FD05C0A88979
:1003B000B9898C9186FD0FC00FB607FCF5CF8081FF
:1003C00085FFF2CFA889B9898C9185FFEDCFCE0149
:1003D0000E945D01E7CFDF91CF910895CF92DF9228
:1003E000EF92FF920F931F93CF93DF936C017A01EB
:1003F0008B01C0E0D0E0CE15DF0581F0D8016D9112
:100400008D01D601ED91FC910190F081E02DC601A6
:100410001995892B11F02196EECF7E01C701DF914E
:10042000CF911F910F91FF90EF90DF90CF900895A3
:10043000089580E090E008950E9404061F920F92B4
:100440000FB60F9211240BB60F922F933F934F9339
:100450005F936F937F938F939F93AF93BF93EF932C
:10046000FF938091B900887F803609F49CC068F5BD
:10047000883209F45BC090F4803109F454C038F438
:10048000882309F4F2C0883009F44DC0F2C08831E5
:1004900009F44CC0803209F45DC0EBC0803409F42B
:1004A00068C048F4803309F455C0883309F0E1C0CE
:1004B00080937E02D4C0803509F44FC0883509F49A
:1004C0005DC0883409F0D5C0D2C0883909F4C3C0F2
:1004D000A8F4883709F467C038F4883609F463C093
:1004E000803709F460C0C5C0883809F4B4C08039C9
:1004F00009F45FC0803809F0BCC05BC0803B09F4E0
:1005000084C038F4803A09F466C0883A09F47DC0A2
:10051000B0C0803C09F4A3C0883C09F4A0C0883B6B
:1005200009F486C0A6C08091A40210C09091A302D5
:100530008091A202981770F5E091A30281E08E0FDE
:100540008093A302F0E0EE57FD4F80818093BB00C3
:1005500085EC82C080937E028AC0E091A30281E094
:100560008E0F8093A3028091BB00F0E0EE57FD4F09
:1005700080839091A3028091A2026AC0E091A302BD
:1005800081E08E0F8093A3028091BB00F0E0EE57D4
:10059000FD4F808380918102811169C081E0809349
:1005A000800284EA5DC083E080937F0210927D0226
:1005B000CFCF80917D02803208F04DC0E0917D0266
:1005C00081E08E0F80937D028091BB00F0E0E35AC2
:1005D000FD4F8083BDCF85EC8093BC0010927F02DD
:1005E00080917D02803230F4E0917D02F0E0E35AA8
:1005F000FD4F108260917D0270E08DE592E0E0E0B9
:10060000F0E0199510927D0234C084E080937F025F
:1006100010925C0210925B02E0E0F0E0199580918C
:100620005B02811105C081E080935B0210923B0266
:10063000E0915C0281E08E0F80935C02F0E0E55C6B
:10064000FD4F80818093BB0090915C0280915B02A2
:10065000981708F47DCF85E88093BC000AC085EC2C
:100660008093BC0010927F0204C010927E020E9410
:10067000C400FF91EF91BF91AF919F918F917F91B6
:100680006F915F914F913F912F910F900BBE0F9003
:100690000FBE0F901F9018951F920F920FB60F92DA
:1006A00011242F933F938F939F93AF93BF93809188
:1006B000360290913702A0913802B0913902309100
:1006C000350223E0230F2D3720F40196A11DB11D23
:1006D00005C026E8230F0296A11DB11D2093350207
:1006E0008093360290933702A0933802B093390278
:1006F0008091310290913202A0913302B091340284
:100700000196A11DB11D8093310290933202A093F6
:100710003302B0933402BF91AF919F918F913F917B
:100720002F910F900FBE0F901F9018951F920F9250
:100730000FB60F9211240BB60F922F933F934F9346
:100740005F936F937F938F939F93AF93BF93EF9339
:10075000FF9381EB92E00E945D01FF91EF91BF91C9
:10076000AF919F918F917F916F915F914F913F9149
:100770002F910F900BBE0F900FBE0F901F901895EA
:100780001F920F920FB60F9211240BB60F922F9358
:100790008F939F93EF93FF93E091C102F091C20278
:1007A0008081E091C702F091C80282FD12C0908161
:1007B0008091CA028F5F8F732091CB02821751F014
:1007C000E091CA02F0E0EF54FD4F958F8093CA028A
:1007D00001C08081FF91EF919F918F912F910F9098
:1007E0000BBE0F900FBE0F901F9018951F920F9287
:1007F0000FB60F9211240BB60F922F933F934F9386
:100800005F936F937F938F939F93AF93BF93EF9378
:10081000FF9380912F02909130028093B2008091DB
:100820002B0290912C02A0912D02B0912E020196E4
:10083000A11DB11D80932B0290932C02A0932D0239
:10084000B0932E0280912B0290912C02A0912D0248
:10085000B0912E0280912A02811110C081E0809314
:100860002A0210922B0210922C0210922D0210924A
:100870002E02E0E0F0E0199510922A02FF91EF912C
:10088000BF91AF919F918F917F916F915F914F91A8
:100890003F912F910F900BBE0F900FBE0F901F90A6
:1008A0001895CF93DF93EC01862F90E0959587956F
:1008B00088831A826D8361E070E080E190E00E949D
:1008C000C70498878F83DF91CF910895E5EAF2E01E
:1008D0001382128288EE93E0A0E0B0E084839583D7
:1008E000A683B7832AE032E031832083E1EBF2E094
:1008F0001382128284839583A683B7838CE192E06E
:100900009183808385EC90E09587848784EC90E0E8
:100910009787868780EC90E0918B808B81EC90E0CC
:10092000938B828B82EC90E0958B848B86EC90E0AD
:10093000978B868B118E128E138E148E66E08FE449
:1009400093E00E94510468E08DE593E00C9451041B
:100950008FEF84B92F9A2FEF89E698E121508040DC
:100960009040E1F700C000002F982FEF89E698E152
:10097000215080409040E1F700C00000EBCFEE0F27
:10098000FF1F881F8BBF0790F691E02D19940F93DE
:100990001F93CF93DF93869F8001879F100D969FB3
:1009A000100D1124C8010E94E304EC01009729F006
:1009B000A80160E070E00E940906CE01DF91CF91AE
:1009C0001F910F9108950F931F93CF93DF93823060
:1009D000910510F482E090E0E0916D03F0916E03D8
:1009E00020E030E0A0E0B0E0309719F14081518183
:1009F0000281138148175907C8F08417950769F4D5
:100A0000109731F012960C93129713961C9327C0EF
:100A100000936D0310936E0322C02115310519F068
:100A20004217530718F49A01BD01EF01DF01F801E5
:100A3000DBCF21153105F9F0281B390B24303105A6
:100A400080F48A819B816115710521F0FB019383FC
:100A5000828304C090936E0380936D03FE013296EF
:100A600044C0FE01E20FF31F81939193225031099C
:100A7000398328833AC020916B0330916C03232B78
:100A800041F4209102023091030230936C032093D1
:100A90006B0320910002309101022115310541F4D0
:100AA0002DB73EB74091040250910502241B350B2F
:100AB000E0916B03F0916C03E217F307A0F42E1B97
:100AC0003F0B2817390778F0AC014E5F5F4F2417B2
:100AD000350748F04E0F5F1F50936C0340936B0334
:100AE0008193919302C0E0E0F0E0CF01DF91CF91DC
:100AF0001F910F910895CF93DF93009709F481C060
:100B0000FC01329713821282A0916D03B0916E03A3
:100B1000109781F420813181820F931F20916B0304
:100B200030916C032817390751F5F0936C03E0936B
:100B30006B0367C0ED0120E030E0CE17DF0740F423
:100B40004A815B819E0141155105F1F0EA01F5CF23
:100B5000D383C28340815181840F951FC817D90761
:100B600059F488819981840F951F0296918380831F
:100B70008A819B81938382832115310529F4F09327
:100B80006E03E0936D033DC0E901FB83EA83499165
:100B90005991C40FD51FEC17FD0761F48081918135
:100BA000840F951F0296E90199838883828193813E
:100BB0009B838A83E0E0F0E012968D919C911397DD
:100BC000009719F0FD01DC01F7CF8D919C911197F1
:100BD0009D012E5F3F4F820F931F20916B03309139
:100BE0006C032817390769F4309729F410926E03C3
:100BF00010926D0302C013821282B0936C03A09313
:100C00006B03DF91CF91089581E090E0F8940C940C
:100C10001006DC0101C06D9341505040E0F708958B
:040C2000F894FFCF76
:100C240000006F032000000000000F0104011902FE
:100C3400F600FD00FA00F700000000007F01EE015D
:0A0C44002001CC0151012F014301F2
:00000001FF
